{
  "_format": "hh-sol-artifact-1",
  "contractName": "AngularNFTs",
  "sourceName": "contracts/AngularNFTs.sol",
  "abi": [
    {
      "inputs": [],
      "stateMutability": "nonpayable",
      "type": "constructor"
    },
    {
      "anonymous": false,
      "inputs": [
        {
          "indexed": true,
          "internalType": "address",
          "name": "owner",
          "type": "address"
        },
        {
          "indexed": true,
          "internalType": "address",
          "name": "approved",
          "type": "address"
        },
        {
          "indexed": true,
          "internalType": "uint256",
          "name": "tokenId",
          "type": "uint256"
        }
      ],
      "name": "Approval",
      "type": "event"
    },
    {
      "anonymous": false,
      "inputs": [
        {
          "indexed": true,
          "internalType": "address",
          "name": "owner",
          "type": "address"
        },
        {
          "indexed": true,
          "internalType": "address",
          "name": "operator",
          "type": "address"
        },
        {
          "indexed": false,
          "internalType": "bool",
          "name": "approved",
          "type": "bool"
        }
      ],
      "name": "ApprovalForAll",
      "type": "event"
    },
    {
      "anonymous": false,
      "inputs": [
        {
          "indexed": false,
          "internalType": "address",
          "name": "sender",
          "type": "address"
        },
        {
          "indexed": false,
          "internalType": "uint256",
          "name": "tokenId",
          "type": "uint256"
        }
      ],
      "name": "NewEpicNFTMinted",
      "type": "event"
    },
    {
      "anonymous": false,
      "inputs": [
        {
          "indexed": true,
          "internalType": "address",
          "name": "from",
          "type": "address"
        },
        {
          "indexed": true,
          "internalType": "address",
          "name": "to",
          "type": "address"
        },
        {
          "indexed": true,
          "internalType": "uint256",
          "name": "tokenId",
          "type": "uint256"
        }
      ],
      "name": "Transfer",
      "type": "event"
    },
    {
      "inputs": [
        {
          "internalType": "address",
          "name": "to",
          "type": "address"
        },
        {
          "internalType": "uint256",
          "name": "tokenId",
          "type": "uint256"
        }
      ],
      "name": "approve",
      "outputs": [],
      "stateMutability": "nonpayable",
      "type": "function"
    },
    {
      "inputs": [
        {
          "internalType": "address",
          "name": "owner",
          "type": "address"
        }
      ],
      "name": "balanceOf",
      "outputs": [
        {
          "internalType": "uint256",
          "name": "",
          "type": "uint256"
        }
      ],
      "stateMutability": "view",
      "type": "function"
    },
    {
      "inputs": [
        {
          "internalType": "string",
          "name": "imageURI",
          "type": "string"
        }
      ],
      "name": "formatTokenURI",
      "outputs": [
        {
          "internalType": "string",
          "name": "",
          "type": "string"
        }
      ],
      "stateMutability": "pure",
      "type": "function"
    },
    {
      "inputs": [
        {
          "internalType": "uint256",
          "name": "tokenId",
          "type": "uint256"
        }
      ],
      "name": "getApproved",
      "outputs": [
        {
          "internalType": "address",
          "name": "",
          "type": "address"
        }
      ],
      "stateMutability": "view",
      "type": "function"
    },
    {
      "inputs": [
        {
          "internalType": "address",
          "name": "owner",
          "type": "address"
        },
        {
          "internalType": "address",
          "name": "operator",
          "type": "address"
        }
      ],
      "name": "isApprovedForAll",
      "outputs": [
        {
          "internalType": "bool",
          "name": "",
          "type": "bool"
        }
      ],
      "stateMutability": "view",
      "type": "function"
    },
    {
      "inputs": [],
      "name": "makeAnEpicNFT",
      "outputs": [],
      "stateMutability": "nonpayable",
      "type": "function"
    },
    {
      "inputs": [],
      "name": "name",
      "outputs": [
        {
          "internalType": "string",
          "name": "",
          "type": "string"
        }
      ],
      "stateMutability": "view",
      "type": "function"
    },
    {
      "inputs": [
        {
          "internalType": "uint256",
          "name": "tokenId",
          "type": "uint256"
        }
      ],
      "name": "ownerOf",
      "outputs": [
        {
          "internalType": "address",
          "name": "",
          "type": "address"
        }
      ],
      "stateMutability": "view",
      "type": "function"
    },
    {
      "inputs": [
        {
          "internalType": "uint256",
          "name": "tokenId",
          "type": "uint256"
        }
      ],
      "name": "pickRandomFirstWord",
      "outputs": [
        {
          "internalType": "string",
          "name": "",
          "type": "string"
        }
      ],
      "stateMutability": "view",
      "type": "function"
    },
    {
      "inputs": [
        {
          "internalType": "uint256",
          "name": "tokenId",
          "type": "uint256"
        }
      ],
      "name": "pickRandomSecondWord",
      "outputs": [
        {
          "internalType": "string",
          "name": "",
          "type": "string"
        }
      ],
      "stateMutability": "view",
      "type": "function"
    },
    {
      "inputs": [
        {
          "internalType": "uint256",
          "name": "tokenId",
          "type": "uint256"
        }
      ],
      "name": "pickRandomThirdWord",
      "outputs": [
        {
          "internalType": "string",
          "name": "",
          "type": "string"
        }
      ],
      "stateMutability": "view",
      "type": "function"
    },
    {
      "inputs": [
        {
          "internalType": "address",
          "name": "from",
          "type": "address"
        },
        {
          "internalType": "address",
          "name": "to",
          "type": "address"
        },
        {
          "internalType": "uint256",
          "name": "tokenId",
          "type": "uint256"
        }
      ],
      "name": "safeTransferFrom",
      "outputs": [],
      "stateMutability": "nonpayable",
      "type": "function"
    },
    {
      "inputs": [
        {
          "internalType": "address",
          "name": "from",
          "type": "address"
        },
        {
          "internalType": "address",
          "name": "to",
          "type": "address"
        },
        {
          "internalType": "uint256",
          "name": "tokenId",
          "type": "uint256"
        },
        {
          "internalType": "bytes",
          "name": "_data",
          "type": "bytes"
        }
      ],
      "name": "safeTransferFrom",
      "outputs": [],
      "stateMutability": "nonpayable",
      "type": "function"
    },
    {
      "inputs": [
        {
          "internalType": "address",
          "name": "operator",
          "type": "address"
        },
        {
          "internalType": "bool",
          "name": "approved",
          "type": "bool"
        }
      ],
      "name": "setApprovalForAll",
      "outputs": [],
      "stateMutability": "nonpayable",
      "type": "function"
    },
    {
      "inputs": [
        {
          "internalType": "bytes4",
          "name": "interfaceId",
          "type": "bytes4"
        }
      ],
      "name": "supportsInterface",
      "outputs": [
        {
          "internalType": "bool",
          "name": "",
          "type": "bool"
        }
      ],
      "stateMutability": "view",
      "type": "function"
    },
    {
      "inputs": [
        {
          "internalType": "string",
          "name": "svg",
          "type": "string"
        }
      ],
      "name": "svgToImageURI",
      "outputs": [
        {
          "internalType": "string",
          "name": "",
          "type": "string"
        }
      ],
      "stateMutability": "pure",
      "type": "function"
    },
    {
      "inputs": [],
      "name": "symbol",
      "outputs": [
        {
          "internalType": "string",
          "name": "",
          "type": "string"
        }
      ],
      "stateMutability": "view",
      "type": "function"
    },
    {
      "inputs": [
        {
          "internalType": "uint256",
          "name": "tokenId",
          "type": "uint256"
        }
      ],
      "name": "tokenURI",
      "outputs": [
        {
          "internalType": "string",
          "name": "",
          "type": "string"
        }
      ],
      "stateMutability": "view",
      "type": "function"
    },
    {
      "inputs": [
        {
          "internalType": "address",
          "name": "from",
          "type": "address"
        },
        {
          "internalType": "address",
          "name": "to",
          "type": "address"
        },
        {
          "internalType": "uint256",
          "name": "tokenId",
          "type": "uint256"
        }
      ],
      "name": "transferFrom",
      "outputs": [],
      "stateMutability": "nonpayable",
      "type": "function"
    }
  ],
  "bytecode": "0x608060405260405180610160016040528061012f81526020016200468b61012f91396008908051906020019062000038929190620006b9565b506040518060c001604052806040518060400160405280600781526020017f416e67756c61720000000000000000000000000000000000000000000000000081525081526020016040518060400160405280600381526020017f446f67000000000000000000000000000000000000000000000000000000000081525081526020016040518060400160405280600581526020017f526561637400000000000000000000000000000000000000000000000000000081525081526020016040518060400160405280600581526020017f4e696e6a6100000000000000000000000000000000000000000000000000000081525081526020016040518060400160405280600381526020017f446576000000000000000000000000000000000000000000000000000000000081525081526020016040518060400160405280600481526020017f4461726b000000000000000000000000000000000000000000000000000000008152508152506009906006620001b69291906200074a565b506040518060c001604052806040518060400160405280600781526020017f416e67756c61720000000000000000000000000000000000000000000000000081525081526020016040518060400160405280600281526020017f4a5300000000000000000000000000000000000000000000000000000000000081525081526020016040518060400160405280600381526020017f457468000000000000000000000000000000000000000000000000000000000081525081526020016040518060400160405280600281526020017f4f6600000000000000000000000000000000000000000000000000000000000081525081526020016040518060400160405280600281526020017f417400000000000000000000000000000000000000000000000000000000000081525081526020016040518060400160405280600681526020017f4c6974746c650000000000000000000000000000000000000000000000000000815250815250600a906006620003349291906200074a565b506040518060e001604052806040518060400160405280600781526020017f416e67756c61720000000000000000000000000000000000000000000000000081525081526020016040518060400160405280600581526020017f4e616b696100000000000000000000000000000000000000000000000000000081525081526020016040518060400160405280600481526020017f4c6f76650000000000000000000000000000000000000000000000000000000081525081526020016040518060400160405280600781526020017f556e69636f726e0000000000000000000000000000000000000000000000000081525081526020016040518060400160405280600481526020017f486f70650000000000000000000000000000000000000000000000000000000081525081526020016040518060400160405280600381526020017f4a6f79000000000000000000000000000000000000000000000000000000000081525081526020016040518060400160405280600481526020017f426f6f6b00000000000000000000000000000000000000000000000000000000815250815250600b906007620004ed929190620007b1565b50348015620004fb57600080fd5b506040518060400160405280600e81526020017f4461726b4c6974746c65426f6f6b0000000000000000000000000000000000008152506040518060400160405280600e81526020017f4461726b4c6974746c65426f6f6b000000000000000000000000000000000000815250816000908051906020019062000580929190620006b9565b50806001908051906020019062000599929190620006b9565b505050620005e76040518060400160405280601e81526020017f54686973206973206d79204e465420636f6e74726163742e20576f6168210000815250620005ed60201b620011cd1760201c565b620009d2565b6200068d81604051602401620006049190620008e6565b6040516020818303038152906040527f41304fac000000000000000000000000000000000000000000000000000000007bffffffffffffffffffffffffffffffffffffffffffffffffffffffff19166020820180517bffffffffffffffffffffffffffffffffffffffffffffffffffffffff83818316178352505050506200069060201b60201c565b50565b60008151905060006a636f6e736f6c652e6c6f679050602083016000808483855afa5050505050565b828054620006c7906200095c565b90600052602060002090601f016020900481019282620006eb576000855562000737565b82601f106200070657805160ff191683800117855562000737565b8280016001018555821562000737579182015b828111156200073657825182559160200191906001019062000719565b5b50905062000746919062000818565b5090565b8280548282559060005260206000209081019282156200079e579160200282015b828111156200079d5782518290805190602001906200078c929190620006b9565b50916020019190600101906200076b565b5b509050620007ad919062000837565b5090565b82805482825590600052602060002090810192821562000805579160200282015b8281111562000804578251829080519060200190620007f3929190620006b9565b5091602001919060010190620007d2565b5b50905062000814919062000837565b5090565b5b808211156200083357600081600090555060010162000819565b5090565b5b808211156200085b57600081816200085191906200085f565b5060010162000838565b5090565b5080546200086d906200095c565b6000825580601f10620008815750620008a2565b601f016020900490600052602060002090810190620008a1919062000818565b5b50565b6000620008b2826200090a565b620008be818562000915565b9350620008d081856020860162000926565b620008db81620009c1565b840191505092915050565b60006020820190508181036000830152620009028184620008a5565b905092915050565b600081519050919050565b600082825260208201905092915050565b60005b838110156200094657808201518184015260208101905062000929565b8381111562000956576000848401525b50505050565b600060028204905060018216806200097557607f821691505b602082108114156200098c576200098b62000992565b5b50919050565b7f4e487b7100000000000000000000000000000000000000000000000000000000600052602260045260246000fd5b6000601f19601f8301169050919050565b613ca980620009e26000396000f3fe608060405234801561001057600080fd5b50600436106101215760003560e01c806370a08231116100ad578063b88d4fde11610071578063b88d4fde14610352578063c575757a1461036e578063c87b56dd1461039e578063de9d132f146103ce578063e985e9c5146103d857610121565b806370a082311461028857806371aee193146102b857806395d89b41146102e8578063a22cb46514610306578063b187301f1461032257610121565b806323b872dd116100f457806323b872dd146101c05780632de38d68146101dc57806330d871c61461020c57806342842e0e1461023c5780636352211e1461025857610121565b806301ffc9a71461012657806306fdde0314610156578063081812fc14610174578063095ea7b3146101a4575b600080fd5b610140600480360381019061013b9190612642565b610408565b60405161014d9190612e15565b60405180910390f35b61015e6104ea565b60405161016b9190612e30565b60405180910390f35b61018e600480360381019061018991906126d5565b61057c565b60405161019b9190612d85565b60405180910390f35b6101be60048036038101906101b99190612606565b610601565b005b6101da60048036038101906101d59190612500565b610719565b005b6101f660048036038101906101f191906126d5565b610779565b6040516102039190612e30565b60405180910390f35b61022660048036038101906102219190612694565b610897565b6040516102339190612e30565b60405180910390f35b61025660048036038101906102519190612500565b61092a565b005b610272600480360381019061026d91906126d5565b61094a565b60405161027f9190612d85565b60405180910390f35b6102a2600480360381019061029d919061249b565b6109fc565b6040516102af9190613090565b60405180910390f35b6102d260048036038101906102cd9190612694565b610ab4565b6040516102df9190612e30565b60405180910390f35b6102f0610b04565b6040516102fd9190612e30565b60405180910390f35b610320600480360381019061031b91906125ca565b610b96565b005b61033c600480360381019061033791906126d5565b610bac565b6040516103499190612e30565b60405180910390f35b61036c6004803603810190610367919061254f565b610cca565b005b610388600480360381019061038391906126d5565b610d2c565b6040516103959190612e30565b60405180910390f35b6103b860048036038101906103b391906126d5565b610e4a565b6040516103c59190612e30565b60405180910390f35b6103d6610f9c565b005b6103f260048036038101906103ed91906124c4565b611139565b6040516103ff9190612e15565b60405180910390f35b60007f80ac58cd000000000000000000000000000000000000000000000000000000007bffffffffffffffffffffffffffffffffffffffffffffffffffffffff1916827bffffffffffffffffffffffffffffffffffffffffffffffffffffffff191614806104d357507f5b5e139f000000000000000000000000000000000000000000000000000000007bffffffffffffffffffffffffffffffffffffffffffffffffffffffff1916827bffffffffffffffffffffffffffffffffffffffffffffffffffffffff1916145b806104e357506104e282611266565b5b9050919050565b6060600080546104f990613355565b80601f016020809104026020016040519081016040528092919081815260200182805461052590613355565b80156105725780601f1061054757610100808354040283529160200191610572565b820191906000526020600020905b81548152906001019060200180831161055557829003601f168201915b5050505050905090565b6000610587826112d0565b6105c6576040517f08c379a00000000000000000000000000000000000000000000000000000000081526004016105bd90613010565b60405180910390fd5b6004600083815260200190815260200160002060009054906101000a900473ffffffffffffffffffffffffffffffffffffffff169050919050565b600061060c8261094a565b90508073ffffffffffffffffffffffffffffffffffffffff168373ffffffffffffffffffffffffffffffffffffffff16141561067d576040517f08c379a000000000000000000000000000000000000000000000000000000000815260040161067490613050565b60405180910390fd5b8073ffffffffffffffffffffffffffffffffffffffff1661069c61133c565b73ffffffffffffffffffffffffffffffffffffffff1614806106cb57506106ca816106c561133c565b611139565b5b61070a576040517f08c379a000000000000000000000000000000000000000000000000000000000815260040161070190612f50565b60405180910390fd5b6107148383611344565b505050565b61072a61072461133c565b826113fd565b610769576040517f08c379a000000000000000000000000000000000000000000000000000000000815260040161076090613070565b60405180910390fd5b6107748383836114db565b505050565b606060006107ad61078984611742565b6040516020016107999190612d41565b6040516020818303038152906040526118ef565b9050600980549050816107c09190613401565b9050600981815481106107fc577f4e487b7100000000000000000000000000000000000000000000000000000000600052603260045260246000fd5b90600052602060002001805461081190613355565b80601f016020809104026020016040519081016040528092919081815260200182805461083d90613355565b801561088a5780601f1061085f5761010080835404028352916020019161088a565b820191906000526020600020905b81548152906001019060200180831161086d57829003601f168201915b5050505050915050919050565b606060006040518060400160405280601a81526020017f646174613a696d6167652f7376672b786d6c3b6261736536342c000000000000815250905060006108fd846040516020016108e99190612bfe565b604051602081830303815290604052611922565b90508181604051602001610912929190612c15565b60405160208183030381529060405292505050919050565b61094583838360405180602001604052806000815250610cca565b505050565b6000806002600084815260200190815260200160002060009054906101000a900473ffffffffffffffffffffffffffffffffffffffff169050600073ffffffffffffffffffffffffffffffffffffffff168173ffffffffffffffffffffffffffffffffffffffff1614156109f3576040517f08c379a00000000000000000000000000000000000000000000000000000000081526004016109ea90612f90565b60405180910390fd5b80915050919050565b60008073ffffffffffffffffffffffffffffffffffffffff168273ffffffffffffffffffffffffffffffffffffffff161415610a6d576040517f08c379a0000000000000000000000000000000000000000000000000000000008152600401610a6490612f70565b60405180910390fd5b600360008373ffffffffffffffffffffffffffffffffffffffff1673ffffffffffffffffffffffffffffffffffffffff168152602001908152602001600020549050919050565b6060610ade82604051602001610aca9190612cba565b604051602081830303815290604052611922565b604051602001610aee9190612d63565b6040516020818303038152906040529050919050565b606060018054610b1390613355565b80601f0160208091040260200160405190810160405280929190818152602001828054610b3f90613355565b8015610b8c5780601f10610b6157610100808354040283529160200191610b8c565b820191906000526020600020905b815481529060010190602001808311610b6f57829003601f168201915b5050505050905090565b610ba8610ba161133c565b8383611ac1565b5050565b60606000610be0610bbc84611742565b604051602001610bcc9190612d1f565b6040516020818303038152906040526118ef565b9050600a8054905081610bf39190613401565b9050600a8181548110610c2f577f4e487b7100000000000000000000000000000000000000000000000000000000600052603260045260246000fd5b906000526020600020018054610c4490613355565b80601f0160208091040260200160405190810160405280929190818152602001828054610c7090613355565b8015610cbd5780601f10610c9257610100808354040283529160200191610cbd565b820191906000526020600020905b815481529060010190602001808311610ca057829003601f168201915b5050505050915050919050565b610cdb610cd561133c565b836113fd565b610d1a576040517f08c379a0000000000000000000000000000000000000000000000000000000008152600401610d1190613070565b60405180910390fd5b610d2684848484611c2e565b50505050565b60606000610d60610d3c84611742565b604051602001610d4c9190612cfd565b6040516020818303038152906040526118ef565b9050600b8054905081610d739190613401565b9050600b8181548110610daf577f4e487b7100000000000000000000000000000000000000000000000000000000600052603260045260246000fd5b906000526020600020018054610dc490613355565b80601f0160208091040260200160405190810160405280929190818152602001828054610df090613355565b8015610e3d5780601f10610e1257610100808354040283529160200191610e3d565b820191906000526020600020905b815481529060010190602001808311610e2057829003601f168201915b5050505050915050919050565b6060610e55826112d0565b610e94576040517f08c379a0000000000000000000000000000000000000000000000000000000008152600401610e8b90612ff0565b60405180910390fd5b6000600660008481526020019081526020016000208054610eb490613355565b80601f0160208091040260200160405190810160405280929190818152602001828054610ee090613355565b8015610f2d5780601f10610f0257610100808354040283529160200191610f2d565b820191906000526020600020905b815481529060010190602001808311610f1057829003601f168201915b505050505090506000610f3e611c8a565b9050600081511415610f54578192505050610f97565b600082511115610f89578082604051602001610f71929190612c15565b60405160208183030381529060405292505050610f97565b610f9284611ca1565b925050505b919050565b6000610fa86007611d48565b90506000610fb582610779565b90506000610fc283610bac565b90506000610fcf84610d2c565b905060006008848484604051602001610feb9493929190612c39565b604051602081830303815290604052905061103a6040518060400160405280601581526020017f0a2d2d2d2d2d2d2d2d2d2d2d2d2d2d2d2d2d2d2d2d00000000000000000000008152506111cd565b61107261104e61104983610897565b610ab4565b60405160200161105e9190612c98565b6040516020818303038152906040526111cd565b6110b06040518060400160405280601581526020017f2d2d2d2d2d2d2d2d2d2d2d2d2d2d2d2d2d2d2d2d0a00000000000000000000008152506111cd565b6110ba3386611d56565b6110cc856110c783610ab4565b611d74565b6110ef604051806060016040528060258152602001613c0f602591398633611de8565b6110f96007611e87565b7febb98688741ffa4c7589bf325de30cf7becb63de567842e1ccdb6cb949fdc82c338660405161112a929190612dec565b60405180910390a15050505050565b6000600560008473ffffffffffffffffffffffffffffffffffffffff1673ffffffffffffffffffffffffffffffffffffffff16815260200190815260200160002060008373ffffffffffffffffffffffffffffffffffffffff1673ffffffffffffffffffffffffffffffffffffffff16815260200190815260200160002060009054906101000a900460ff16905092915050565b611263816040516024016111e19190612e30565b6040516020818303038152906040527f41304fac000000000000000000000000000000000000000000000000000000007bffffffffffffffffffffffffffffffffffffffffffffffffffffffff19166020820180517bffffffffffffffffffffffffffffffffffffffffffffffffffffffff8381831617835250505050611e9d565b50565b60007f01ffc9a7000000000000000000000000000000000000000000000000000000007bffffffffffffffffffffffffffffffffffffffffffffffffffffffff1916827bffffffffffffffffffffffffffffffffffffffffffffffffffffffff1916149050919050565b60008073ffffffffffffffffffffffffffffffffffffffff166002600084815260200190815260200160002060009054906101000a900473ffffffffffffffffffffffffffffffffffffffff1673ffffffffffffffffffffffffffffffffffffffff1614159050919050565b600033905090565b816004600083815260200190815260200160002060006101000a81548173ffffffffffffffffffffffffffffffffffffffff021916908373ffffffffffffffffffffffffffffffffffffffff160217905550808273ffffffffffffffffffffffffffffffffffffffff166113b78361094a565b73ffffffffffffffffffffffffffffffffffffffff167f8c5be1e5ebec7d5bd14f71427d1e84f3dd0314c0f7b2291e5b200ac8c7c3b92560405160405180910390a45050565b6000611408826112d0565b611447576040517f08c379a000000000000000000000000000000000000000000000000000000000815260040161143e90612f30565b60405180910390fd5b60006114528361094a565b90508073ffffffffffffffffffffffffffffffffffffffff168473ffffffffffffffffffffffffffffffffffffffff1614806114c157508373ffffffffffffffffffffffffffffffffffffffff166114a98461057c565b73ffffffffffffffffffffffffffffffffffffffff16145b806114d257506114d18185611139565b5b91505092915050565b8273ffffffffffffffffffffffffffffffffffffffff166114fb8261094a565b73ffffffffffffffffffffffffffffffffffffffff1614611551576040517f08c379a000000000000000000000000000000000000000000000000000000000815260040161154890612eb0565b60405180910390fd5b600073ffffffffffffffffffffffffffffffffffffffff168273ffffffffffffffffffffffffffffffffffffffff1614156115c1576040517f08c379a00000000000000000000000000000000000000000000000000000000081526004016115b890612ef0565b60405180910390fd5b6115cc838383611ec6565b6115d7600082611344565b6001600360008573ffffffffffffffffffffffffffffffffffffffff1673ffffffffffffffffffffffffffffffffffffffff1681526020019081526020016000206000828254611627919061326b565b925050819055506001600360008473ffffffffffffffffffffffffffffffffffffffff1673ffffffffffffffffffffffffffffffffffffffff168152602001908152602001600020600082825461167e919061318a565b92505081905550816002600083815260200190815260200160002060006101000a81548173ffffffffffffffffffffffffffffffffffffffff021916908373ffffffffffffffffffffffffffffffffffffffff160217905550808273ffffffffffffffffffffffffffffffffffffffff168473ffffffffffffffffffffffffffffffffffffffff167fddf252ad1be2c89b69c2b068fc378daa952ba7f163c4a11628f55a4df523b3ef60405160405180910390a461173d838383611ecb565b505050565b6060600082141561178a576040518060400160405280600181526020017f300000000000000000000000000000000000000000000000000000000000000081525090506118ea565b600082905060005b600082146117bc5780806117a5906133b8565b915050600a826117b591906131e0565b9150611792565b60008167ffffffffffffffff8111156117fe577f4e487b7100000000000000000000000000000000000000000000000000000000600052604160045260246000fd5b6040519080825280601f01601f1916602001820160405280156118305781602001600182028036833780820191505090505b5090505b600085146118e357600182611849919061326b565b9150600a856118589190613401565b6030611864919061318a565b60f81b8183815181106118a0577f4e487b7100000000000000000000000000000000000000000000000000000000600052603260045260246000fd5b60200101907effffffffffffffffffffffffffffffffffffffffffffffffffffffffffffff1916908160001a905350600a856118dc91906131e0565b9450611834565b8093505050505b919050565b6000816040516020016119029190612bfe565b6040516020818303038152906040528051906020012060001c9050919050565b606060008251141561194557604051806020016040528060008152509050611abc565b6000604051806060016040528060408152602001613c346040913990506000600360028551611974919061318a565b61197e91906131e0565b600461198a9190613211565b9050600060208261199b919061318a565b67ffffffffffffffff8111156119da577f4e487b7100000000000000000000000000000000000000000000000000000000600052604160045260246000fd5b6040519080825280601f01601f191660200182016040528015611a0c5781602001600182028036833780820191505090505b509050818152600183018586518101602084015b81831015611a7b576003830192508251603f8160121c168501518253600182019150603f81600c1c168501518253600182019150603f8160061c168501518253600182019150603f8116850151825360018201915050611a20565b600389510660018114611a955760028114611aa557611ab0565b613d3d60f01b6002830352611ab0565b603d60f81b60018303525b50505050508093505050505b919050565b8173ffffffffffffffffffffffffffffffffffffffff168373ffffffffffffffffffffffffffffffffffffffff161415611b30576040517f08c379a0000000000000000000000000000000000000000000000000000000008152600401611b2790612f10565b60405180910390fd5b80600560008573ffffffffffffffffffffffffffffffffffffffff1673ffffffffffffffffffffffffffffffffffffffff16815260200190815260200160002060008473ffffffffffffffffffffffffffffffffffffffff1673ffffffffffffffffffffffffffffffffffffffff16815260200190815260200160002060006101000a81548160ff0219169083151502179055508173ffffffffffffffffffffffffffffffffffffffff168373ffffffffffffffffffffffffffffffffffffffff167f17307eab39ab6107e8899845ad3d59bd9653f200f220920489ca2b5937696c3183604051611c219190612e15565b60405180910390a3505050565b611c398484846114db565b611c4584848484611ed0565b611c84576040517f08c379a0000000000000000000000000000000000000000000000000000000008152600401611c7b90612e90565b60405180910390fd5b50505050565b606060405180602001604052806000815250905090565b6060611cac826112d0565b611ceb576040517f08c379a0000000000000000000000000000000000000000000000000000000008152600401611ce290613030565b60405180910390fd5b6000611cf5611c8a565b90506000815111611d155760405180602001604052806000815250611d40565b80611d1f84611742565b604051602001611d30929190612c15565b6040516020818303038152906040525b915050919050565b600081600001549050919050565b611d70828260405180602001604052806000815250612067565b5050565b611d7d826112d0565b611dbc576040517f08c379a0000000000000000000000000000000000000000000000000000000008152600401611db390612fb0565b60405180910390fd5b80600660008481526020019081526020016000209080519060200190611de39291906122bf565b505050565b611e82838383604051602401611e0093929190612e52565b6040516020818303038152906040527fe3849f79000000000000000000000000000000000000000000000000000000007bffffffffffffffffffffffffffffffffffffffffffffffffffffffff19166020820180517bffffffffffffffffffffffffffffffffffffffffffffffffffffffff8381831617835250505050611e9d565b505050565b6001816000016000828254019250508190555050565b60008151905060006a636f6e736f6c652e6c6f679050602083016000808483855afa5050505050565b505050565b505050565b6000611ef18473ffffffffffffffffffffffffffffffffffffffff166120c2565b1561205a578373ffffffffffffffffffffffffffffffffffffffff1663150b7a02611f1a61133c565b8786866040518563ffffffff1660e01b8152600401611f3c9493929190612da0565b602060405180830381600087803b158015611f5657600080fd5b505af1925050508015611f8757506040513d601f19601f82011682018060405250810190611f84919061266b565b60015b61200a573d8060008114611fb7576040519150601f19603f3d011682016040523d82523d6000602084013e611fbc565b606091505b50600081511415612002576040517f08c379a0000000000000000000000000000000000000000000000000000000008152600401611ff990612e90565b60405180910390fd5b805181602001fd5b63150b7a0260e01b7bffffffffffffffffffffffffffffffffffffffffffffffffffffffff1916817bffffffffffffffffffffffffffffffffffffffffffffffffffffffff19161491505061205f565b600190505b949350505050565b61207183836120e5565b61207e6000848484611ed0565b6120bd576040517f08c379a00000000000000000000000000000000000000000000000000000000081526004016120b490612e90565b60405180910390fd5b505050565b6000808273ffffffffffffffffffffffffffffffffffffffff163b119050919050565b600073ffffffffffffffffffffffffffffffffffffffff168273ffffffffffffffffffffffffffffffffffffffff161415612155576040517f08c379a000000000000000000000000000000000000000000000000000000000815260040161214c90612fd0565b60405180910390fd5b61215e816112d0565b1561219e576040517f08c379a000000000000000000000000000000000000000000000000000000000815260040161219590612ed0565b60405180910390fd5b6121aa60008383611ec6565b6001600360008473ffffffffffffffffffffffffffffffffffffffff1673ffffffffffffffffffffffffffffffffffffffff16815260200190815260200160002060008282546121fa919061318a565b92505081905550816002600083815260200190815260200160002060006101000a81548173ffffffffffffffffffffffffffffffffffffffff021916908373ffffffffffffffffffffffffffffffffffffffff160217905550808273ffffffffffffffffffffffffffffffffffffffff16600073ffffffffffffffffffffffffffffffffffffffff167fddf252ad1be2c89b69c2b068fc378daa952ba7f163c4a11628f55a4df523b3ef60405160405180910390a46122bb60008383611ecb565b5050565b8280546122cb90613355565b90600052602060002090601f0160209004810192826122ed5760008555612334565b82601f1061230657805160ff1916838001178555612334565b82800160010185558215612334579182015b82811115612333578251825591602001919060010190612318565b5b5090506123419190612345565b5090565b5b8082111561235e576000816000905550600101612346565b5090565b6000612375612370846130d0565b6130ab565b90508281526020810184848401111561238d57600080fd5b612398848285613313565b509392505050565b60006123b36123ae84613101565b6130ab565b9050828152602081018484840111156123cb57600080fd5b6123d6848285613313565b509392505050565b6000813590506123ed81613bb2565b92915050565b60008135905061240281613bc9565b92915050565b60008135905061241781613be0565b92915050565b60008151905061242c81613be0565b92915050565b600082601f83011261244357600080fd5b8135612453848260208601612362565b91505092915050565b600082601f83011261246d57600080fd5b813561247d8482602086016123a0565b91505092915050565b60008135905061249581613bf7565b92915050565b6000602082840312156124ad57600080fd5b60006124bb848285016123de565b91505092915050565b600080604083850312156124d757600080fd5b60006124e5858286016123de565b92505060206124f6858286016123de565b9150509250929050565b60008060006060848603121561251557600080fd5b6000612523868287016123de565b9350506020612534868287016123de565b925050604061254586828701612486565b9150509250925092565b6000806000806080858703121561256557600080fd5b6000612573878288016123de565b9450506020612584878288016123de565b935050604061259587828801612486565b925050606085013567ffffffffffffffff8111156125b257600080fd5b6125be87828801612432565b91505092959194509250565b600080604083850312156125dd57600080fd5b60006125eb858286016123de565b92505060206125fc858286016123f3565b9150509250929050565b6000806040838503121561261957600080fd5b6000612627858286016123de565b925050602061263885828601612486565b9150509250929050565b60006020828403121561265457600080fd5b600061266284828501612408565b91505092915050565b60006020828403121561267d57600080fd5b600061268b8482850161241d565b91505092915050565b6000602082840312156126a657600080fd5b600082013567ffffffffffffffff8111156126c057600080fd5b6126cc8482850161245c565b91505092915050565b6000602082840312156126e757600080fd5b60006126f584828501612486565b91505092915050565b6127078161329f565b82525050565b612716816132b1565b82525050565b600061272782613147565b612731818561315d565b9350612741818560208601613322565b61274a816134ee565b840191505092915050565b600061276082613152565b61276a818561316e565b935061277a818560208601613322565b612783816134ee565b840191505092915050565b600061279982613152565b6127a3818561317f565b93506127b3818560208601613322565b80840191505092915050565b600081546127cc81613355565b6127d6818661317f565b945060018216600081146127f1576001811461280257612835565b60ff19831686528186019350612835565b61280b85613132565b60005b8381101561282d5781548189015260018201915060208101905061280e565b838801955050505b50505092915050565b600061284b60258361317f565b9150612856826134ff565b602582019050919050565b600061286e60098361317f565b91506128798261354e565b600982019050919050565b600061289160328361316e565b915061289c82613577565b604082019050919050565b60006128b4600e8361317f565b91506128bf826135c6565b600e82019050919050565b60006128d760258361316e565b91506128e2826135ef565b604082019050919050565b60006128fa601c8361316e565b91506129058261363e565b602082019050919050565b600061291d600a8361317f565b915061292882613667565b600a82019050919050565b600061294060248361316e565b915061294b82613690565b604082019050919050565b600061296360198361316e565b915061296e826136df565b602082019050919050565b6000612986600b8361317f565b915061299182613708565b600b82019050919050565b60006129a9602c8361316e565b91506129b482613731565b604082019050919050565b60006129cc600d8361317f565b91506129d782613780565b600d82019050919050565b60006129ef60018361317f565b91506129fa826137a9565b600182019050919050565b6000612a1260388361316e565b9150612a1d826137d2565b604082019050919050565b6000612a35602a8361316e565b9150612a4082613821565b604082019050919050565b6000612a5860298361316e565b9150612a6382613870565b604082019050919050565b6000612a7b602e8361316e565b9150612a86826138bf565b604082019050919050565b6000612a9e60028361317f565b9150612aa98261390e565b600282019050919050565b6000612ac160208361316e565b9150612acc82613937565b602082019050919050565b6000612ae460318361316e565b9150612aef82613960565b604082019050919050565b6000612b0760558361317f565b9150612b12826139af565b605582019050919050565b6000612b2a602c8361316e565b9150612b3582613a24565b604082019050919050565b6000612b4d602f8361316e565b9150612b5882613a73565b604082019050919050565b6000612b7060218361316e565b9150612b7b82613ac2565b604082019050919050565b6000612b93600a8361317f565b9150612b9e82613b11565b600a82019050919050565b6000612bb6601d8361317f565b9150612bc182613b3a565b601d82019050919050565b6000612bd960318361316e565b9150612be482613b63565b604082019050919050565b612bf881613309565b82525050565b6000612c0a828461278e565b915081905092915050565b6000612c21828561278e565b9150612c2d828461278e565b91508190509392505050565b6000612c4582876127bf565b9150612c51828661278e565b9150612c5c826129e2565b9150612c68828561278e565b9150612c73826129e2565b9150612c7f828461278e565b9150612c8a826129bf565b915081905095945050505050565b6000612ca38261283e565b9150612caf828461278e565b915081905092915050565b6000612cc582612861565b9150612cd0826128a7565b9150612cdb82612afa565b9150612ce7828461278e565b9150612cf282612a91565b915081905092915050565b6000612d0882612910565b9150612d14828461278e565b915081905092915050565b6000612d2a82612979565b9150612d36828461278e565b915081905092915050565b6000612d4c82612b86565b9150612d58828461278e565b915081905092915050565b6000612d6e82612ba9565b9150612d7a828461278e565b915081905092915050565b6000602082019050612d9a60008301846126fe565b92915050565b6000608082019050612db560008301876126fe565b612dc260208301866126fe565b612dcf6040830185612bef565b8181036060830152612de1818461271c565b905095945050505050565b6000604082019050612e0160008301856126fe565b612e0e6020830184612bef565b9392505050565b6000602082019050612e2a600083018461270d565b92915050565b60006020820190508181036000830152612e4a8184612755565b905092915050565b60006060820190508181036000830152612e6c8186612755565b9050612e7b6020830185612bef565b612e8860408301846126fe565b949350505050565b60006020820190508181036000830152612ea981612884565b9050919050565b60006020820190508181036000830152612ec9816128ca565b9050919050565b60006020820190508181036000830152612ee9816128ed565b9050919050565b60006020820190508181036000830152612f0981612933565b9050919050565b60006020820190508181036000830152612f2981612956565b9050919050565b60006020820190508181036000830152612f498161299c565b9050919050565b60006020820190508181036000830152612f6981612a05565b9050919050565b60006020820190508181036000830152612f8981612a28565b9050919050565b60006020820190508181036000830152612fa981612a4b565b9050919050565b60006020820190508181036000830152612fc981612a6e565b9050919050565b60006020820190508181036000830152612fe981612ab4565b9050919050565b6000602082019050818103600083015261300981612ad7565b9050919050565b6000602082019050818103600083015261302981612b1d565b9050919050565b6000602082019050818103600083015261304981612b40565b9050919050565b6000602082019050818103600083015261306981612b63565b9050919050565b6000602082019050818103600083015261308981612bcc565b9050919050565b60006020820190506130a56000830184612bef565b92915050565b60006130b56130c6565b90506130c18282613387565b919050565b6000604051905090565b600067ffffffffffffffff8211156130eb576130ea6134bf565b5b6130f4826134ee565b9050602081019050919050565b600067ffffffffffffffff82111561311c5761311b6134bf565b5b613125826134ee565b9050602081019050919050565b60008190508160005260206000209050919050565b600081519050919050565b600081519050919050565b600082825260208201905092915050565b600082825260208201905092915050565b600081905092915050565b600061319582613309565b91506131a083613309565b9250827fffffffffffffffffffffffffffffffffffffffffffffffffffffffffffffffff038211156131d5576131d4613432565b5b828201905092915050565b60006131eb82613309565b91506131f683613309565b92508261320657613205613461565b5b828204905092915050565b600061321c82613309565b915061322783613309565b9250817fffffffffffffffffffffffffffffffffffffffffffffffffffffffffffffffff04831182151516156132605761325f613432565b5b828202905092915050565b600061327682613309565b915061328183613309565b92508282101561329457613293613432565b5b828203905092915050565b60006132aa826132e9565b9050919050565b60008115159050919050565b60007fffffffff0000000000000000000000000000000000000000000000000000000082169050919050565b600073ffffffffffffffffffffffffffffffffffffffff82169050919050565b6000819050919050565b82818337600083830152505050565b60005b83811015613340578082015181840152602081019050613325565b8381111561334f576000848401525b50505050565b6000600282049050600182168061336d57607f821691505b6020821081141561338157613380613490565b5b50919050565b613390826134ee565b810181811067ffffffffffffffff821117156133af576133ae6134bf565b5b80604052505050565b60006133c382613309565b91507fffffffffffffffffffffffffffffffffffffffffffffffffffffffffffffffff8214156133f6576133f5613432565b5b600182019050919050565b600061340c82613309565b915061341783613309565b92508261342757613426613461565b5b828206905092915050565b7f4e487b7100000000000000000000000000000000000000000000000000000000600052601160045260246000fd5b7f4e487b7100000000000000000000000000000000000000000000000000000000600052601260045260246000fd5b7f4e487b7100000000000000000000000000000000000000000000000000000000600052602260045260246000fd5b7f4e487b7100000000000000000000000000000000000000000000000000000000600052604160045260246000fd5b6000601f19601f8301169050919050565b7f68747470733a2f2f6e6674707265766965772e30786465762e636f6465732f3f60008201527f636f64653d000000000000000000000000000000000000000000000000000000602082015250565b7f7b226e616d65223a220000000000000000000000000000000000000000000000600082015250565b7f4552433732313a207472616e7366657220746f206e6f6e20455243373231526560008201527f63656976657220696d706c656d656e7465720000000000000000000000000000602082015250565b7f4461726b4c6974746c65426f6f6b000000000000000000000000000000000000600082015250565b7f4552433732313a207472616e736665722066726f6d20696e636f72726563742060008201527f6f776e6572000000000000000000000000000000000000000000000000000000602082015250565b7f4552433732313a20746f6b656e20616c7265616479206d696e74656400000000600082015250565b7f54484952445f574f524400000000000000000000000000000000000000000000600082015250565b7f4552433732313a207472616e7366657220746f20746865207a65726f2061646460008201527f7265737300000000000000000000000000000000000000000000000000000000602082015250565b7f4552433732313a20617070726f766520746f2063616c6c657200000000000000600082015250565b7f5345434f4e445f574f5244000000000000000000000000000000000000000000600082015250565b7f4552433732313a206f70657261746f7220717565727920666f72206e6f6e657860008201527f697374656e7420746f6b656e0000000000000000000000000000000000000000602082015250565b7f3c2f746578743e3c2f7376673e00000000000000000000000000000000000000600082015250565b7f2000000000000000000000000000000000000000000000000000000000000000600082015250565b7f4552433732313a20617070726f76652063616c6c6572206973206e6f74206f7760008201527f6e6572206e6f7220617070726f76656420666f7220616c6c0000000000000000602082015250565b7f4552433732313a2062616c616e636520717565727920666f7220746865207a6560008201527f726f206164647265737300000000000000000000000000000000000000000000602082015250565b7f4552433732313a206f776e657220717565727920666f72206e6f6e657869737460008201527f656e7420746f6b656e0000000000000000000000000000000000000000000000602082015250565b7f45524337323155524953746f726167653a2055524920736574206f66206e6f6e60008201527f6578697374656e7420746f6b656e000000000000000000000000000000000000602082015250565b7f227d000000000000000000000000000000000000000000000000000000000000600082015250565b7f4552433732313a206d696e7420746f20746865207a65726f2061646472657373600082015250565b7f45524337323155524953746f726167653a2055524920717565727920666f722060008201527f6e6f6e6578697374656e7420746f6b656e000000000000000000000000000000602082015250565b7f222c20226465736372697074696f6e223a22416e204e46542066726f6d20746860008201527f6520686967686c79206461726b20636f6c6c656374696f6e222c20226174747260208201527f696275746573223a22222c2022696d616765223a220000000000000000000000604082015250565b7f4552433732313a20617070726f76656420717565727920666f72206e6f6e657860008201527f697374656e7420746f6b656e0000000000000000000000000000000000000000602082015250565b7f4552433732314d657461646174613a2055524920717565727920666f72206e6f60008201527f6e6578697374656e7420746f6b656e0000000000000000000000000000000000602082015250565b7f4552433732313a20617070726f76616c20746f2063757272656e74206f776e6560008201527f7200000000000000000000000000000000000000000000000000000000000000602082015250565b7f46495253545f574f524400000000000000000000000000000000000000000000600082015250565b7f646174613a6170706c69636174696f6e2f6a736f6e3b6261736536342c000000600082015250565b7f4552433732313a207472616e736665722063616c6c6572206973206e6f74206f60008201527f776e6572206e6f7220617070726f766564000000000000000000000000000000602082015250565b613bbb8161329f565b8114613bc657600080fd5b50565b613bd2816132b1565b8114613bdd57600080fd5b50565b613be9816132bd565b8114613bf457600080fd5b50565b613c0081613309565b8114613c0b57600080fd5b5056fe416e204e465420772f20494420257320686173206265656e206d696e74656420746f2025734142434445464748494a4b4c4d4e4f505152535455565758595a6162636465666768696a6b6c6d6e6f707172737475767778797a303132333435363738392b2fa2646970667358221220fbb31c8de1e04cc0f9995b8423c5df48cf127616edbdc77f0cf7c826f594aed164736f6c634300080400333c73766720786d6c6e733d27687474703a2f2f7777772e77332e6f72672f323030302f73766727207072657365727665417370656374526174696f3d27784d696e594d696e206d656574272076696577426f783d273020302033353020333530273e3c7374796c653e2e62617365207b2066696c6c3a2077686974653b20666f6e742d66616d696c793a2073657269663b20666f6e742d73697a653a20323470783b207d3c2f7374796c653e3c726563742077696474683d273130302527206865696768743d2731303025272066696c6c3d27626c61636b27202f3e3c7465787420783d273530252720793d273530252720636c6173733d27626173652720646f6d696e616e742d626173656c696e653d276d6964646c652720746578742d616e63686f723d276d6964646c65273e",
  "linkReferences": {},
  "deployedLinkReferences": {}
}